:040000008031202803
:100008007E14803120007F08F1000B1F13282E007A
:10001800191A0F1E13288531DC2580311B280B1F68
:100028001B282E00991A8F1E1B2886314B26710813
:100038002000FF007E1009008031222884308400CF
:1000480086308500DF308600003087000730863133
:100058008B268031FA01FB01423084000030850094
:100068001430863191267E10200080313B2886315D
:10007800722680318B170B17863197268031200026
:100088009615DF30860000308700A03084000030ED
:1000980085000730BC0016001A00BC0B4F287A2ACE
:1000A800AC30853117258031353021002D06031DF0
:1000B800E82830302E06031DE82814302000A6005A
:1000C8008530A7000230A8000030A9008231B32291
:1000D80080312100C901CA014A08803A2000BC00C9
:1000E80080303C02031D7B2803302100490203189D
:1000F800DE2821004A08F3004908F2000330F40022
:100108000030F5008631152680317208003E200047
:10011800A0007030733DA10084314124803120005B
:100128002030860000308700D830840000308500F9
:100138000530BC0016001A00BC0B9E28EE30A60045
:100148008430A70021005A082000BC00BD013C08EB
:10015800A8003D08A90021005B082000BE00BF01DF
:100168003E08AA003F08AB0021005C082000C00040
:10017800C1014008AC004108AD0021005908200029
:10018800AF00210058082000AE008231B322803130
:1001980001302100C9070030CA3D4A08803A2000D2
:1001A800BC0080303C02031DDC28033021004902DA
:1001B800031C7D2814302000A6008530A7000330DA
:1001C800A8000030A900162A363021002D06031D8C
:1001D800092A31302E06031D092ACB01CC01D6018C
:1001E800D701CD01CE014E08803A2000BC008030F6
:1001F8003C02031D0229053021004D02031827295E
:1002080021004D08043EAC3E86008701010820000D
:10021800BC0021004D08A73E8600870120003C084D
:10022800810001302100CD070030CE3D4E08803AD4
:100238002000BC0080303C02031D25290530210028
:100248004D02031C0429A7308331992380312000F3
:1002580025082100C100200024082100C0000A3020
:10026800DD000030DE005E08803A2000BC008030EF
:100278003C02031D4229143021005D020318C229E3
:1002880021005D08AC3E860087012F300106031D62
:10029800B0295D08F63ED600FF305E3DD7005D29E7
:1002A800013059290A3059296430D6000030D70066
:1002B8006D295708003A031962296D295608013A31
:1002C80003195429033A03195629013A03195829DD
:1002D8006D290A30C2000030C3004308803A20006C
:1002E800BC0021005E08803A20003C02031D7F29E3
:1002F80021005D0842020318C22921004208AC3ED1
:10030800860087010108D03EF200FF300318003054
:10031800F3005708F5005608F40086311526803199
:1003280021004B087207CB004C08733DCC000A3003
:10033800F2000030F3005708F5005608F400833146
:10034800EF23803173082100D7007208D6000130EE
:10035800C2070030C33D712901302100DD0700309C
:10036800DE3D5E08803A2000BC0080303C02031D60
:10037800C029143021005D02031C44290D302000DF
:10038800A6008530A70021004C082000A900210004
:100398004B082000A8008231B32280312100410897
:1003A8002000A100210040082000A0008431412441
:1003B800803120002030860000308700C43084005F
:1003C800003085000530BC0016001A00BC0BE82977
:1003D80021004B082000BC003C082100C600C430A6
:1003E8008600003087002030840000308500403FC0
:1003F800803F413F813F423F823F433F833F443FED
:10040800843F853172258031192AFD302000A600ED
:100418008430A700A030BC003C08A800AC30BD0068
:100428003D08A9008231B322803100302000A000AD
:100438007030A100843141248031200020308600B2
:1004480000308700D1308400003085000530BC00C2
:1004580016001A00BC0B2C2A803021005302031C02
:10046800382A200016143A2A200016100330A0005B
:100478007030A10084314124803120002030860072
:1004880000308700D1308400003085000530BC0082
:1004980016001A00BC0B4C2A803021005302031CA2
:1004A800582A200096145A2A200096100630A000D8
:1004B8007030A10084314124803120002030860032
:1004C80000308700D1308400003085000530BC0042
:1004D80016001A00BC0B6C2A803021005302031C42
:1004E800782A200016157A2A2000161102302000DA
:1004F800BE00A030BD009230BC00BC0B812ABD0BF1
:10050800812ABE0B812A00007A08031D54287A0824
:10051800031D7A2A21002C0803197A2ACF01D00159
:100528005008803A2000BC0080303C02031D9F2AFE
:10053800103021004F0203187A2A21004F08AC3EE0
:1005480086008701010803197A2A4F08AC3E860005
:10055800870181010130CF070030D03D942A28302F
:100568002000B0003008BA0020002708B100260893
:10057800B000A60A0319A70A3008840031088500CC
:100588000008B2003208BB003B08031908002530F8
:100598003B060319D42A3B0886319D268231B82AA6
:1005A8002000B401152B3A08860087010108B8001D
:1005B8000030B9000130B0003008BA0738083904F3
:1005C800031DEA2A0630B8008530B90038088400CF
:1005D8003908850012000319B82A38088400390838
:1005E8008500000886319D26823101302000B80739
:1005F8000030B93DEA2A3A08860087010108B000B0
:100608003008BB000230B0003008BA073B0886311A
:100618009D268231B82AC0302000B0003008B404CA
:100628002F2B2708B1002608B000A60A0319A70A2D
:1006380030088400310885000008BB00003A03191F
:10064800982B633A0319FF2A103A0319D72A063A56
:1006580003190F2B0A2B3A0886008701403FB50083
:10066800413FB6000230B0003008BA07BB01BB0AF0
:1006780005303B0603195F2B3B08B000B101B035CC
:10068800B10DE430300784008430313D8500003FEF
:10069800B200013FB30033083602031D552B320860
:1006A8003502031C5F2B0130B0003008BB07053052
:1006B8003B06031D402B3B08B0003008B700FF3055
:1006C8002000B0003008B707370A0319B82A0A30E3
:1006D800A0000030A1003708B000B101B035B10D5D
:1006E800E430300784008430313D8500003FF2005B
:1006F800013FF3003608F5003508F4008431B024D2
:10070800823173082000A3007208A20085314525B4
:10071800823120002008303EB2003208BB003B087E
:1007280086319D268231632B08002000A6001030F8
:10073800A7002730A800A901AA01AB01AC012C0829
:10074800803AF80080307802031DAC2B05302B026C
:100758000318E92B20002B082607F80078088600E4
:1007680087010108D03EF200FF3003180030F30083
:100778002808F5002708F400863115268331200063
:1007880029087207A9002A08733DAA000A30F20056
:100798000030F3002808F5002708F4008331EF2320
:1007A800833173082000A8007208A7000130AB0746
:1007B8000030AC3D2C08803AF80080307802031DE8
:1007C800E72B05302B02031CAE2B20002A08A500BE
:1007D8002908A40008002000A101F31FFA2BF20940
:1007E800F309F20A0319F30AA101A10AF51F052C5E
:1007F800F409F509F40A0319F50A0130F600760838
:10080800A106A201A301720873040319342CA001E4
:10081800A00AF31B192C0130F235F30D890B102CAB
:100828000130F6007608A0070D2C0130A235A30D83
:10083800890B1A2C73087502031D242C7208740284
:10084800031C2B2C7208F4027308F53B22140130A8
:10085800F336F20C890B2C2C0130A002031D192C45
:10086800210803193C2CA209A309A20A0319A30A07
:100878002308F3002208F200080020002108A6003F
:100888002008A5002108F3002008F200863166261A
:100898008431F80078082000A7002008013EF20003
:1008A8000030213DF300863166268431F80078084F
:1008B8002000A8002008023EF2000030213DF3008D
:1008C800863166268431F80078082000A900253092
:1008D8008600003087002030840000308500053015
:1008E800F80016001A00F80B752C08002000960175
:1008F80097019801FF309100FF309200BF309300BC
:10090800DF303E00CE00FF30C300FF30B800E50105
:10091800C401B901CF01BA01C501D00100308B1B58
:100928000130F2008B1355303D008F00AA308F0044
:100938000F1010303E00A6003D004B08E039153876
:10094800CB0055308F00AA308F000F14721CAE2CCC
:100958008B1708008B130800F701F801720873045D
:100968000319DF2CF901F90AF31BC42C0130F23505
:10097800F30D890BBB2C0130F6007608F907B82C6B
:100988000130F735F80D890BC52C73087502031D66
:10099800CF2C72087402031CD62C7208F402730858
:1009A800F53B77140130F336F20C890BD72C013064
:1009B800F902031DC42C7808F3007708F200080038
:1009C800013400340A34003464340034E834033425
:1009D800103427343C34253475342C34253475349C
:1009E8002C34253475342C34253475342F343E3466
:1009F80000342534733420343A34203425347334A5
:100A08002E34003428346E3475346C346C34293404
:100A180000346F346B343A34203425347534003460
:100A2800253463340034F8007808F4007408F600BC
:100A3800F701F70A7A080319412D8531BD2585315B
:100A4800F4007408F5007508F4007808860087013A
:100A5800740881007808860087013E300106031972
:100A6800F7017608860087013C300106031D1E2D1C
:100A78000130F4007408F8071E2D770803190800E0
:100A8800212D20002008210403196D2DA501A50A98
:100A9800A11B582D0130A035A10D890B4F2D013018
:100AA800A4002408A5074C2D21082302031D5E2D50
:100AB80020082202031C642D2008A2022108A33B5F
:100AC8000130A136A00C890B652D0130A502031D4C
:100AD800582D2308A1002208A000080020002108A2
:100AE800F3002008F2002208F6007608F4008531A9
:100AF800F925853120002008013EF2000030213D13
:100B0800F3002308F6007608F4008531F9258531CD
:100B180020002008023EF2000030213DF3002408A6
:100B2800F6007608F4008531F9250800F300200066
:100B3800560803199B2D2E00191AA62D730822009A
:100B48009A00BA2D19127308F2007B084A3E8600F3
:100B58008701720881000130F2007208FB07083033
:100B68007B020318FB0101302000D6022E00191663
:100B78000800F301200016157A080319C02D20007B
:100B880016115308423E860087010108F2007208D8
:100B9800F3000130F2007208D3070830530203183B
:100BA800D3012E0099120130FA0299167308080031
:100BB8000830200056020318F62D54084A3E8600D5
:100BC8008701010822009A000130F0007008200017
:100BD800D407083054020318D4010130F00070081B
:100BE800D60708002E001912080000308B1B0130B0
:100BF800F500730830009B0072089A0074089C0086
:100C08001E171E158B1355309F00AA309F009E1487
:100C18009E180C2E1E11750C031C8B1303188B17B2
:100C28000800F601F701721C1D2E7408F6077508F6
:100C3800F73D0130F435F50D890B1E2E0130F336E2
:100C4800F20C890B232E72087304031D172E7708E4
:100C5800F3007608F20008002E00991219120830E5
:100C680022009F0090309D0024309E0040309B0061
:100C780003309C00FB012000D4010830F200720808
:100C8800D600D201D301FA012E00991608002200DD
:100C98009D1C502E1D121D161908F0002000520828
:100CA800423E86008701700881000130F00070081C
:100CB800D207083052020318D2010130F000700840
:100CC800FA070800730830009B0072089A001E1784
:100CD8001E140000000030001C08080084317A242B
:100CE800863186317B2686318631302608001030E1
:100CF80031008D008F0191010530930092010800A9
:100D08007034693463346534723472340034FE00EC
:100D180012001E00FE0B8C2E00346400800101318D
:100D2800890B922E00342000910196013E00B801F3
:0C0D38000800F400740885319A250800BA
:020000040001F9
:0A000E009C3FFF3F9F3FFF3FFF3F75
:00000001FF
